:100000000C9435000C945D000C945D000C945D0024
:100010000C945D000C945D000C945D000C945D00EC
:100020000C945D000C945D000C945D000C945D00DC
:100030000C945D000C945D000C945D000C945D00CC
:100040000C9458010C945D000C94C8010C94A2010E
:100050000C945D000C945D000C945D000C945D00AC
:100060000C945D000C945D00860211241FBECFEF3E
:10007000D8E0DEBFCDBF11E0A0E0B1E0E0E8F5E000
:1000800002C005900D92A031B107D9F721E0A0E19F
:10009000B1E001C01D92A63BB207E1F710E0C5E355
:1000A000D0E004C02197FE010E94B302C433D107FF
:1000B000C9F70E94FA010C94BE020C940000CF9282
:1000C000DF92EF92FF920F931F93CF93DF936C0118
:1000D0007A018B01C0E0D0E0CE15DF0589F0D801B0
:1000E0006D918D01D601ED91FC910190F081E02D93
:1000F000C6010995892B11F47E0102C02196ECCF2F
:10010000C701DF91CF911F910F91FF90EF90DF908A
:10011000CF900895FC01918D828D981761F0828DAA
:10012000DF01A80FB11D5D968C91928D9F5F9F732B
:10013000928F90E008958FEF9FEF0895FC01918DCD
:10014000828D981731F0828DE80FF11D858D90E03A
:1001500008958FEF9FEF0895FC01918D228D892FD7
:1001600090E0805C9F4F821B91098F7399270895BF
:1001700080E191E00E94AC0021E0892B09F420E0AD
:10018000822F0895FC01848DDF01A80FB11DA35AB1
:10019000BF4F2C91848D90E001968F739927848FA7
:1001A000A689B7892C93A089B1898C9180648C939E
:1001B000938D848D981306C00288F389E02D808189
:1001C0008F7D80830895EF92FF920F931F93CF93BB
:1001D000DF93EC0181E0888F9B8D8C8D981305C097
:1001E000E889F989808185FD24C0F62E0B8D10E009
:1001F0000F5F1F4F0F731127E02E8C8DE8120CC07C
:100200000FB607FCFACFE889F989808185FFF5CF21
:10021000CE010E94C200F1CF8B8DFE01E80FF11DCF
:10022000E35AFF4FF0820B8FEA89FB89808180625D
:1002300007C0EE89FF896083E889F989808180643D
:10024000808381E090E0DF91CF911F910F91FF902B
:10025000EF900895CF93DF93EC01888D8823C9F048
:10026000EA89FB89808185FD05C0A889B9898C91BF
:1002700086FD0FC00FB607FCF5CF808185FFF2CF5A
:10028000A889B9898C9185FFEDCFCE010E94C2006B
:10029000E7CFDF91CF91089580E090E0892B29F09E
:1002A0000E94B80081110C94000008950E94B902C8
:1002B0001F920F920FB60F9211242F933F938F939B
:1002C0009F93AF93BF938091B2019091B301A0919E
:1002D000B401B091B5013091B10123E0230F2D3766
:1002E00020F40196A11DB11D05C026E8230F02963A
:1002F000A11DB11D2093B1018093B2019093B30170
:10030000A093B401B093B5018091AD019091AE017D
:10031000A091AF01B091B0010196A11DB11D8093D4
:10032000AD019093AE01A093AF01B093B001BF9126
:10033000AF919F918F913F912F910F900FBE0F9092
:100340001F9018951F920F920FB60F9211242F93A2
:100350003F934F935F936F937F938F939F93AF934D
:10036000BF93EF93FF9380E191E00E94C200FF9161
:10037000EF91BF91AF919F918F917F916F915F911D
:100380004F913F912F910F900FBE0F901F90189596
:100390001F920F920FB60F9211242F938F939F935A
:1003A000EF93FF93E0912001F09121018081E09192
:1003B0002601F091270182FD12C0908180912901D0
:1003C0008F5F8F7320912A01821751F0E0912901EC
:1003D000F0E0E05FFE4F958F8093290101C080819E
:1003E000FF91EF919F918F912F910F900FBE0F90E2
:1003F0001F901895789484B5826084BD84B581601F
:1004000084BD85B5826085BD85B5816085BD8091DF
:100410006E00816080936E00109281008091810057
:10042000826080938100809181008160809381004F
:10043000809180008160809380008091B100846011
:100440008093B1008091B00081608093B000809172
:100450007A00846080937A0080917A008260809331
:100460007A0080917A00816080937A0080917A008E
:10047000806880937A001092C100E0912001F09191
:10048000210182E08083E0911C01F0911D01108226
:10049000E0911E01F0911F018FEC808310922801E2
:1004A000E0912401F091250186E08083E091220112
:1004B000F0912301808180618083E0912201F0919D
:1004C0002301808188608083E0912201F0912301E3
:1004D000808180688083E0912201F09123018081F6
:1004E0008F7D808380E191E00E94AC001816190690
:1004F00054F480E191E00E948A00682F80E191E04D
:100500000E94E300EFCF0E944C01ECCFE0E1F1E06C
:100510001382128288EE93E0A0E0B0E0848395839A
:10052000A683B78384E091E09183808385EC90E09B
:100530009587848784EC90E09787868780EC90E0AD
:10054000918B808B81EC90E0938B828B82EC90E09E
:10055000958B848B86EC90E0978B868B118E128E18
:10056000138E148E0895EE0FFF1F0590F491E02D69
:10057000099481E090E0F8940C94BE02F894FFCFC7
:1005800000000000E3005F00AC008A009E002A012A
:00000001FF
